:100000000C942A000C9447000C9449000C9447006F
:100010000C9447000C9447000C9447000C94470044
:100020000C9447000C9447000C9447000C94470034
:100030000C9447000C9447000C9447000C94470024
:100040000C9447000C9447000C9447000C94470014
:100050000C94470011241FBECFE5D4E0DEBFCDBF16
:1000600010E0A0E6B0E0ECEFF4E002C005900D92E5
:10007000A436B107D9F713E0A4E6B0E001C01D92A1
:10008000A839B107E1F70E9438020C947C020C9465
:1000900000001F920F920FB60F9211248F939F931F
:1000A000809194039091950301969093950380938A
:1000B00094039F918F910F900FBE0F901F901895F2
:1000C000C09AC19ADB9AC39AB898B998D398BB984A
:1000D0000895BD9ABF9ABC9A8D9A8F9A8DE58DB975
:1000E000089592B360789F77962B92BB95988FB9BD
:1000F000779BFECF959A08952AEC30E080E090E05F
:1001000046E650E00BC01192E217F307E1F70196C3
:100110009F012A593F4F8830910551F0849FF0018B
:10012000859FF00D949FF00D1124EC59FF4FEBCFFC
:100130000895806B60E00E94710081E008951F9334
:10014000182F8F7060E00E94710012951F70812F30
:10015000806160E00E94710081E01F9108950F931B
:100160001F9300E010C0802F0E949900812F0E94F1
:100170009F0080E06FEF0E9471001F5F163699F7B5
:100180000F5F083011F010E0EECF1F910F9108952E
:1001900080E460E00E94710081EA60E00E947100EA
:1001A00080EC60E00E94710084EA60E00E947100CF
:1001B00086EA60E00E94710080EB94E028EB30E07A
:1001C000F9013197F1F70197D9F782EA60E00E94CF
:1001D00071008FE260E00E94710087E260E00E949F
:1001E000710081E860E00E94710080E160E00E949F
:1001F00071008AEF60E00E94710080E960E00E9477
:1002000071008FEA60E00E9471000E94AF000E94BE
:100210007C0081E00895B09B05C0809160008F5FF5
:1002200080936000B19B05C08091600081508093F5
:100230006000CB9905C0809161008150809361007E
:10024000B39905C0809161008F5F809361009091A8
:100250006000892F86958695869580939703977081
:10026000909396030E949900809161000E949F00E4
:100270008091970390E04091610026E630E0829FF4
:10028000F001839FF00D929FF00D1124E40FF11DFA
:10029000EC59FF4F21E030E00090960302C0220F9E
:1002A000331F0A94E2F78081822B80939603808328
:1002B0006FEF0E94710086EF99E028EB30E0F901C2
:1002C0003197F1F70197D9F708958091620085374A
:1002D00021F480916000815005C0843631F4809112
:1002E00060008F5F809360000DC08C3621F4809198
:1002F0006100815005C0823729F4809161008F5FD1
:1003000080936100809160008F3F11F41092600033
:1003100080916000803418F08FE3809360008091BA
:1003200061008F3F11F41092610080916100863668
:1003300018F085E68093610090916000892F869582
:1003400086958695809397039770909396030E9465
:100350009900809161000E949F00809162008E361A
:1003600049F141E050E00090960302C0440F551F50
:100370000A94E2F7609161008091970390E026E68D
:1003800030E0829FF001839FF00D929FF00D1124C9
:10039000E60FF11DEC59FF4F808190E084239523F7
:1003A0008417950739F40E94AF000E947C008EE606
:1003B000809362008091970390E04091610026E66F
:1003C00030E0829FF001839FF00D929FF00D112489
:1003D000E40FF11DEC59FF4F21E030E0009096034F
:1003E00002C0220F331F0A94E2F78081822B809390
:1003F000960380836FEF0E94710088E39CEF019762
:10040000F1F7089580E00E94990080E00E949F002B
:100410008FEF6FEF0E94710088E06FEF0E94710014
:1004200088E06FEF0E94710088E06FEF0E9471001A
:1004300088E06FEF0E9471008FEF6FEF0E947100F4
:10044000089512BE80E18FBD85E08EBD1CBE08956B
:100450008E9A969880EB94E028EB30E0F901319782
:10046000F1F70197D9F7969A94988C9A949A0895EF
:10047000EF92FF920F931F93A99AA19A0E94600096
:100480000E9428020E94690085B78C6085BF8BB7E7
:1004900080688BBF78940E94C80094E6E92E82E7BA
:1004A000F82E0CE615E70E940B01809194039091C1
:1004B0009503181619060CF4A998B09903C0109367
:1004C0006200F1CFCB9903C000936200ECCFB399E7
:1004D00003C0F0926200E7CFB199E5CFE0926200ED
:1004E000E2CFA99AA19A089585B78C6085BF8BB792
:0C04F00080688BBF78940895F894FFCFCB
:0404FC0020336E003B
:00000001FF
